:020000040800F2
:1000000090060020E5010008F5150008ED15000830
:10001000F1150008891400082B22000800000000D8
:10002000000000000000000000000000C51A0008E9
:100030008D1400080000000055190008D91B0008A5
:10004000FF010008FF010008FF010008FF01000890
:10005000FF010008FF010008FF010008FF01000880
:10006000FF010008FF010008FF010008FF01000870
:10007000FF010008FF010008FF010008FF01000860
:10008000FF010008FF010008FF010008FF01000850
:10009000FF010008FF010008FF010008FF01000840
:1000A000FF010008FF010008FF010008FF01000830
:1000B000FF010008FF010008FF010008FF01000820
:1000C000FF010008FF010008FF010008FF01000810
:1000D000FF010008591F0008FF010008FF01000888
:1000E000FF010008FF010008FF010008FF010008F0
:1000F000FF010008FF010008FF010008FF010008E0
:10010000FF010008FF010008FF010008FF010008CF
:10011000FF010008FF010008FF010008FF010008BF
:10012000FF010008FF010008FF010008FF010008AF
:1001300000F002F800F047F80AA090E8000C8244B2
:100140008344AAF10107DA4501D100F03CF8AFF28F
:10015000090EBAE80F0013F0010F18BFFB1A43F0A5
:1001600001031847B02D0000D02D0000103A24BF25
:1001700078C878C1FAD8520724BF30C830C144BF0C
:1001800004680C607047000000230024002500264E
:10019000103A28BF78C1FBD8520728BF30C148BFEA
:1001A0000B607047662902F07183002070471FB50D
:1001B00000F002FB04000020002102F097F9E0604B
:1001C0001FBD10B510BD00F0F3FB1146FFF7EFFFA8
:1001D00002F0BCF800F011FC03B4FFF7F2FF03BC1F
:1001E00000F054FC0948804709480047FEE7FEE755
:1001F000FEE7FEE7FEE7FEE7FEE7FEE7FEE7FEE7D7
:1002000004480549054A064B70470000DD1B0008FD
:10021000310100089000002090060020900200208C
:10022000900200200FB41CB5074B06AA7B44694618
:100230000090059800F0A7FA0020694600F0B6FA91
:100240001CBC5DF814FB00007D0500002DE9F047A3
:100250004FF0000A89460446C0F820A02046E16815
:100260008847002876D0252806D0D4E90121904778
:10027000206A401C2062F1E7E1682046002588479B
:10028000C4F81CA006460027C4F818A02A2E09D0DE
:10029000304601F0E0FF38B304EB8708303EC8F881
:1002A000186019E059F8041B204604EB870291619D
:1002B000E1688847012F064618D1E069002820DA56
:1002C00025F020051DE0D8F8180000EB800006EBB3
:1002D00040003038C8F818002046E16888470646D4
:1002E00001F0B9FF0028EED1012F0AD02E2E08D13F
:1002F0002046E16888477F1C0646022F45F020050E
:10030000C4DBA069002803DA404245F00105A06182
:10031000E80701D025F01005B6B1A6F14100192873
:1003200002D8203645F400654A463146204625600D
:100330004D46FFF737FF58B1012806D0ED1D25F0D7
:10034000070000F1080989E704E005F1040985E7E1
:1003500030468AE7206ABDE8F087704770477047EB
:1003600070472DE9FF4F0C461E464FF0FF378BB00C
:10037000D2E90001DDF860800A908A46C1F30A558F
:1003800005B93D46002108464FF00000BAF1000FC4
:1003900000F4400005DA00EB80004FF4400101EA70
:1003A00050004FEA9059B9F1010F00DDB9460A98A3
:1003B00050EA4A000ED044F61050A5F2FF354543EE
:1003C0002F14B8F1000F1ED07542291E1EDDC9F191
:1003D00000021CE0B8F1010F4FF0000001D0302105
:1003E00003E0F24305E02154401CB042FBDB304601
:1003F0000022002121540B99C1F80880C1E9002096
:100400000FB0BDE8F08FBD1B6D1CDEE74A4600DA79
:10041000694206A800F05AFA06AB93E8070003AB5E
:1004200083E8070050460A9900F037FB8DE8070083
:10043000A0F500501F3800900398002D09DD42F20E
:100440001F014A46084403A90390684600F096FD40
:1004500008E0A0F500504A461F3803A903906846FB
:1004600000F0A0FD8DE807000004000C03D04FF061
:10047000FF30410800E01046B8F1000F03D0002221
:10048000009215461EE0751E05D400F099F9303231
:1004900062556D1EF9D5B3460122084302D00022F1
:1004A0007F1C04E02078302801D100227F1E002A22
:1004B000099786D01DE0112D07DA00F081F930325E
:1004C00062556D1C50EA0102F5D1084302D0009834
:1004D000C8B10EE00021681E05E0235C625C635435
:1004E0002254401E491C8142F7DBAB46A81B401E2C
:1004F0000990002004F80B000B98099AC0F80880B6
:10050000C0E9002B7CE711264FF0000859E72DE9E0
:10051000F04F88460446D21D22F0070191B0D1E980
:100520000001CDE90A0101F082FE02460B98C00FDE
:1005300001D02D2007E02068810701D52B2002E0A3
:10054000202101EAC000032A099001D0072A05DB17
:1005500003464146204600F079F90BE120788006F9
:1005600001D5E06900E00620B8F1650F814606D0AC
:10057000B8F1660F18D0B8F1670F70D131E00020E4
:10058000B9F1110F009001DB112301E009F1010322
:100590000AAA01A90CA8FFF7E4FEDDE90C70002609
:1005A00009F10105834647E001204B4600904FF0DA
:1005B00000470AAA01A90CA8FFF7D3FEDDE90DB098
:1005C0000C995D46002610B909F101000D18B9EB30
:1005D000050003D4C0F1FF3609F10105A5EB0900C0
:1005E0002BE0B9F1010F01DA4FF001090020B9F158
:1005F000110F0090484601DD112300E003460AAACE
:1006000001A90CA8FFF7ADFEDDE90C704D460026F0
:100610008346207800070AD4AB4500DA5D4601A87E
:10062000012D04DD411911F8011C302907D04F4577
:1006300002DA17F1040F04DA012082460FE06D1E82
:10064000EEE7002F02DCED1B3E4403E0781CA842DD
:1006500000DD7D1CB81B00F1010A4FF00047207837
:10066000000703D4AA4501DB4FF0FF3A0021B7F1A0
:10067000004F0DF143088DF8431024D002202B23A6
:10068000002F01DA7F422D230A21021EA0F1010072
:1006900000DC5FB197FBF1FC97FBF1F201FB1C7CE6
:1006A00017460CF1300C08F801CDEEE7A8F1010077
:1006B00003702188090501D5452100E06521A0F1DD
:1006C000010800F8011C09980FA9A1EB0807FF1DFC
:1006D00000B10120411901EBEA70A1693844081A00
:1006E000401EA0612078C00602D42046AFF30080EF
:1006F000099828B1D4E901219047206A401C206262
:100700002078C00622D52046AFF300801EE0002EE0
:1007100004DBB34502DD01A8805D00E03020D4E9B0
:1007200001219047206A401C2062761CAAF101003A
:100730005FEA000A0AD100F03FF8C0680168405C37
:10074000D4E901219047206A401C2062281EA5F1AF
:100750000105DCDC07E0D4E9012118F8010B904722
:10076000206A401C2062381EA7F10107F3DC2046F6
:10077000AFF30080032011B043E6000001694A1C7A
:1007800002610878704700B58FB0CDE901310021D2
:10079000059105497944CDE9031011466846FFF7F4
:1007A00055FD0FB000BD0000E5FFFFFF0A6802F82D
:1007B000010B0A6070470000004870474C000020A1
:1007C00030B5B0F10A024FEA900E71F100034EEA23
:1007D000817EB0EB0E0061EB91014FEA101E4EEAF4
:1007E000017E10EB0E0041EB11114FEA102E4EEA84
:1007F000016E10EB0E0041EB11214FEA104E4EEA54
:10080000014E10EB0E0041EB1141401841F1000187
:100810004FEAD00040EA41704FEAD10110EB800569
:100820004FEA810444EA907444EB01046D1944EBEF
:100830000404521BA3414FF0000348BF0A3200D505
:1008400030BD401C41F1000130BD00002DE9F041F8
:100850001F46044603260168072A01F4006004DBF2
:1008600008B116A505E016A503E008B115A500E03E
:1008700015A521F010002060A069C01EA0610FB175
:10088000401EA0612046AFF300804FB1D4E90121A2
:1008900038469047206A401C2062C01C206206E057
:1008A000206AFAE7D4E9012115F8010B9047761E7A
:1008B000F8D22046AFF30080BDE8F0814E414E00F3
:1008C0006E616E00494E4600696E66002DE9F04784
:1008D000814616468AB0334878440DC88DE80D002D
:1008E00030487844801C03AC0DC884E80D0041F604
:1008F0009B300844372190FBF1F290FBF1F5A5F114
:10090000800501FB12041B3C02D56442012000E07B
:100910000020DFF890A080460027FA44AAF1BE0A22
:100920000DE0E00709D03246684607EB47010AEBC5
:10093000810100F037FB8DE8070064107F1C002C5C
:10094000EFD1184F7F44AC3F18E0E80714D007EB15
:1009500004100DF1180A90E80E008AE80E00C06835
:10096000F04201D198190890324606A903A800F078
:1009700019FB03AB83E807006D10641C002DE4D164
:1009800032466946B8F1000F03A802D000F0F6FA2B
:1009900001E000F007FBC9E90001C9F808200AB02E
:1009A000BDE8F08720260000004870472C0000209A
:1009B0007546FFF7F9FFAE4605006946534620F03D
:1009C0000700854618B020B5FFF71AFCBDE82040A7
:1009D0004FF000064FF000074FF000084FF0000BFB
:1009E00021F00701AC46ACE8C009ACE8C009ACE8AE
:1009F000C009ACE8C0098D46704710B50446AFF396
:100A000000802046BDE81040FFF7E6BB4FF0013CF8
:100A100050F8042B51F8043B9A4221D1A2EB0C036D
:100A2000934313EACC1317D150F8042B51F8043B2D
:100A30009A4215D1A2EB0C03934313EACC130BD1CA
:100A400050F8042B51F8043B9A4209D1A2EB0C0355
:100A5000934313EACC13DBD04FF00000704700BF84
:100A6000D01A01BAB1FA81F101F0180122FA01F0AD
:100A7000CB40C1F12001DBB2C0B2C01A2CFA01F3A5
:100A8000D11A914311EAC311E6D1704701491820E8
:100A9000ABBEFEE72600020070475FEA400C08BFCD
:100AA00091F0000F4FEA8C234FEAC12243EA5151E3
:100AB0004FEA1C5018BF00F5F0404FEA300018BF55
:100AC00041F000415FEA6C5C00F02980BCF1FF3F1F
:100AD00008BF40F080407047130C06BF12044FF06F
:100AE000100C4FF0000C130E04BF12020CF1080C96
:100AF000130F04BF12010CF1040C930F04BF9200FA
:100B00000CF1020CD30F04BF52000CF1010C114682
:100B10004FF00002A0F11F00A0EB0C00704711F095
:100B2000004F08BF704731F000413FF4D5AF0B0CC8
:100B300006BF09044FF0100C4FF0000C0B0E04BF61
:100B400009020CF1080C0B0F04BF09010CF1040C95
:100B50008B0F04BF89000CF1020CCB0F04BF4900BE
:100B60000CF1010CCCF12003A0EB0C0022FA03F3F2
:100B700002FA0CF241EA030100F10100704720F093
:100B80007F4C80EA030023F07F47ACEB070303F5BB
:100B90007C5300F0004003F1FF032DE980494FEA48
:100BA000154B09B44FEA144325EA0B4E24EA0348D7
:100BB0000FF2042606EB132749083E785FEA32025B
:100BC00003FB0667C7F5000707FB06F64FEA543735
:100BD0004FEAD64606F1020607FB066CCCF1005C34
:100BE0004FEA1C472CEA074C07FB06F40CFB06F502
:100BF00004EB15464FEA961634BF00204FF0004034
:100C00004FEAD13706FB07FC4FEA1C4C0CFB0BF7F5
:100C1000D21B03FB0CF761EB07010CFB0EF7B0EBEB
:100C2000074072EB17420CFB08F734BFA2EB0742F8
:100C3000B2EB074261EB17414FEA0C444FEA9107D0
:100C400006FB07FC4FEA1C4C0CFB0BF7B0EBC74054
:100C500072EB573203FB0CF734BFA2EBC742B2EB87
:100C6000C74261EB57310CFB0EF7B0EBC70072EBDC
:100C700057720CFB08F734BFA2EBC702B2EBC702F6
:100C800061EB5771039F4FEA816141EA921104EBD6
:100C9000CC044FEAD1374FEA826206FB07FC42EAF6
:100CA00090124FEA80604FEA1C4C0CFB0BF7D21BF2
:100CB00003FB0CF761EB07010CFB0EF7B0EB0740F1
:100CC00072EB17420CFB08F734BFA2EB0742B2EB02
:100CD000074261EB17414FEA8C554FEA910704EB4D
:100CE0009C2406FB07FC4FEA1C4C0CFB0BF7B0EBFB
:100CF000C74072EB573203FB0CF734BFA2EBC7427D
:100D0000B2EBC74261EB57310CFB0EF7B0EBC700FB
:100D100072EB57720CFB08F734BFA2EBC702B2EBC1
:100D2000C70261EB577115EB4C254FEA816141EA2F
:100D300092114FEA82624FEAD13742EA901206FBE3
:100D400007FC44F100044FEA80604FEA1C4C0CFBA6
:100D50000BF7D21B03FB0CF761EB07010CFB0EF743
:100D6000B0EB074072EB17420CFB08F734BFA2EB65
:100D70000742B2EB074261EB174115EB1C154FEA36
:100D8000813141EA92414FEA823242EA90424FEA8F
:100D900080304FEA0C7644F1000448EA03434EEAFF
:100DA0000B484FF0000EB2EB080C71EB030724BFA9
:100DB000624639464EEB0E0E4FF0000B00185241C2
:100DC00049414BEB0B0BB2EB080C71EB03077BF1CA
:100DD000000B24BF624639464EEB0E0E4FF0000B5F
:100DE0000018524149414BEB0B0BB2EB080C71EB75
:100DF00003077BF1000B24BF624639464EEB0E0E13
:100E000051EA020718BF46F0010616EB0E7655F1BF
:100E1000000254F1000103D5BDE88901BDE8008856
:100E2000BDE88901BDE80048B619524141EB010116
:100E3000A3F10103704780807F7E7D7C7B7A797887
:100E4000777676757473727171706F6E6E6D6C6C8F
:100E50006B6A6A6968686766666564646363626131
:100E60006160605F5F5E5E5D5D5C5C5B5B5A5A59B2
:100E7000595858575756565555555454535352521E
:100E80005251515050504F4F4F4E4E4D4D4D4C4C76
:100E90004C4B4B4B4A4A4A494949484848474747BF
:100EA00047464646454545444444444343434342FC
:100EB000424242414141002B26D4770021D01CB54B
:100EC0004FEA370703B44FF010004FF010014FF016
:100ED00000000FBCBDE810400BF1010BBBF1010F8E
:100EE00008BF5FEA170722BF12F1010211F10101E9
:100EF0004FF0004143F1000300F0004043EA0000DE
:100F00007047F9D35708DAE746EA064613F1400F6F
:100F10004FEA16461FDD13F1200FDFBF16430A46C6
:100F2000002120335B42C8D0C3F1200746EA0646C1
:100F300002FA07F74FEA164646EA0706C3F120070A
:100F400022FA03F201FA07F721FA03F14FF0000346
:100F500042EA0702B1E746EA020646EA06464FEAD7
:100F6000164646EA0106BCBF46EA0646360C4FF076
:100F700000034FF000024FF000019EE72DE9C0484A
:100F8000934630B491E8380007C831EA400C48BFB6
:100F900034EA430C03D5FFF7F2FDFFF78CFFF0BCFA
:100FA000BDE800882DE9C048934630B491E8380088
:100FB00007C810F0804F08BF13F0804F03D100F036
:100FC00005F8FFF778FFF0BCBDE8008820F07F4708
:100FD00080EA030023F07F4C07EB0C03A3F57C535E
:100FE00000F00040A3F1FE0392F0000F00F0B38088
:100FF00095F0000F00F077802DE901494FEA11408C
:101000004FEA144621EA004800FB06FC24EA0647A2
:1010100008FB06F607FB08F800FB07F718EB064885
:101020004CEB164C4FEA124B18EB07484FEA1546AB
:101030004CEB174022EA0B4E0BFB06FC25EA064759
:101040000EFB06F607FB0EFE0BFB07F71EEB064E2C
:101050004CEB164C4FF000061EEB074E4CEB174BBB
:1010600018EB0B0840F1000018EB0E0B58EB0008D2
:1010700040F100008F1A4FF000013CBFC943661BCE
:1010800014BFB5EB040C00213CBFC943F61B4FEA6B
:1010900017444EEA8E0E27EA04454FEA1C4704FB2C
:1010A00007622CEA074C05FB07F70CFB05F604FB6F
:1010B0000CFC16EB074642EB174216EB0C4642EBD4
:1010C0001C421BEB060658EB0202414146EA9E0613
:1010D00001D5BDE80189B619524141EB0101A3F1E7
:1010E0000103BDE801894FEA14454FEA114724EA9C
:1010F000054621EA074C05FB07F406FB07F70CFB46
:1011000006F105FB0CFC11EB074144EB17444FEAD9
:10111000124711EB0C4144EB1C4422EA074C05FB3F
:1011200007F206FB07F70CFB06F605FB0CFC16EBBB
:10113000074642EB174216EB0C4642EB1C456A1879
:1011400054F1000148BF7047B619524141EB01010B
:10115000A3F10103704795F0000F37D04FEA114219
:101160004FEA144721EA024624EA074C02FB07F142
:1011700006FB07F70CFB06F402FB0CFC14EB074420
:1011800041EB17414FEA154714EB0C4441EB1C416E
:1011900025EA074C02FB07F506FB07F70CFB06F6F2
:1011A00002FB0CFC16EB074645EB174516EB0C460D
:1011B00045EB1C42121951F1000148BF7047B619A6
:1011C000524141EB0101A3F1010370474FEA14457D
:1011D0004FEA114724EA054621EA074C05FB07F1CF
:1011E00006FB07F70CFB06F24FF0000605FB0CFCB4
:1011F00012EB074241EB174112EB0C4251EB1C4141
:1012000048BF7047921841EB0101A3F101037047F9
:1012100021B1826842F00102826003E0826822F01C
:10122000010282607047000010B5044612488442F3
:1012300008D10121401500F0CBFB0021601500F022
:10124000C7FB17E00D48844208D10121001500F0CA
:10125000BFFB0021201500F0BBFB0BE008488442D7
:1012600008D10121C80300F0B3FB00214FF4004076
:1012700000F0AEFB10BD000000240140002801403A
:10128000003C0140014600208A6802F004020AB1D5
:10129000012000E0002070470146C86C80B2704712
:1012A0000246002013680B400BB1012000E0002033
:1012B0007047014600208A6802F008020AB1012046
:1012C00000E000207047000030B5024600200023F7
:1012D00050680F4C20400D790C6844EA05242043E7
:1012E000506090680B4C2040D1E902542C434D795A
:1012F00044EA450420439060D06A20F470000C7CDE
:10130000641EE4B2234340EA0350D06230BD0000C3
:10131000FFFEF0FFFDF7F1FFF0B504460D4600209B
:101320000021092D11DDE068A5F10A0606EB46074C
:10133000072606FA07F18843A5F10A0606EB4606DA
:1013400003FA06F10843E0600CE0206905EB45076D
:10135000072606FA07F1884305EB450603FA06F16E
:1013600008432061072A0FDA606B561E06EB8607DA
:101370001F2606FA07F18843561E06EB860605FA75
:1013800006F10843606322E00D2A0FDA206BD61FB6
:1013900006EB86071F2606FA07F18843D61F06EBE1
:1013A000860605FA06F10843206310E0E06AA2F120
:1013B0000D0606EB86071F2606FA07F18843A2F101
:1013C0000D0606EB860605FA06F10843E062F0BD5D
:1013D000816841F008018160704721B1826842F460
:1013E000A002826003E0826822F4A002826070475B
:1013F000816841F0040181607047000000B587B04A
:1014000001214FF4017000F0D3FA4FF4004000F0D6
:10141000A3FA0220ADF8040000208DF8070001A90E
:10142000174800F034F81748FFF7FEFE002002903E
:101430008DF80C008DF80D004FF460200490002012
:10144000059001208DF8180002A90E48FFF73CFF17
:1014500001210C48FFF7DCFE0A48FFF7B9FF00BF87
:101460000848FFF726FF0028FAD10648FFF7C0FF1B
:1014700000BF0448FFF706FF0028FAD107B000BDFF
:10148000000801400024014000BFFEE770472DE93D
:10149000F0410246002500260020002300240027FA
:1014A00091F803C00CF00F0591F803C00CF0100C7C
:1014B000BCF1000F03D091F802C04CEA050591F889
:1014C00000C0BCF1000F31D0146800202BE04FF0B9
:1014D000010C0CFA00F3B1F800C00CEA03069E42BE
:1014E00020D183004FF00F0C0CFA03F7BC4305FA30
:1014F00003FC4CEA040491F803C0BCF1280F06D1A8
:101500004FF0010C0CFA00FCC2F814C00AE091F88C
:1015100003C0BCF1480F05D14FF0010C0CFA00FCE0
:10152000C2F810C0401C0828D1D31460B1F800C024
:10153000BCF1FF0F34DD546800202EE000F1080CF0
:101540004FF0010808FA0CF3B1F800C00CEA0306EA
:101550009E4221D183004FF00F0C0CFA03F7BC43DD
:1015600005FA03FC4CEA040491F803C0BCF1280F0F
:1015700005D100F1080C08FA0CF8C2F8148091F8B3
:1015800003C0BCF1480F07D100F1080C4FF001086F
:1015900008FA0CF8C2F81080401C0828CED354601A
:1015A000BDE8F08141617047016170470AB1016196
:1015B00000E041617047000010B504460723012296
:1015C00021460948FFF7A8FE01210748FFF705FF5C
:1015D00000BF02210448FFF763FE0028F9D002484B
:1015E000FFF75AFE10BD00000024014000BFFEE7D7
:1015F00000BFFEE77047000070B5002100230F22F6
:10160000C47804B3154C246804F4E064C4F5E064C1
:10161000210AC1F10403CA40447804FA03F1847832
:101620001440214309010E4C0678A155047804F0BA
:101630001F050124AC4005786D11AD0005F1E025D2
:10164000C5F8004109E0047804F01F050124AC400E
:10165000044D0678761145F8264070BD0CED00E08B
:1016600000E400E080E100E002490143024A116029
:10167000704700000000FA050CED00E070B5002492
:101680000EE00021204600F0E6F8002504E00020EE
:1016900000F050F9681CC5B2802DF8DB601CC4B2A4
:1016A000082CEEDB70BD000008B50121082000F019
:1016B0007FF914208DF8030003208DF802004FF409
:1016C0008070ADF8000069460A48FFF7E0FE4FF46D
:1016D0000070ADF8000069460648FFF7D8FE012209
:1016E00011020448FFF762FF012251020148FFF78F
:1016F0005DFF08BD000C014070B50546002415E0F3
:101700008020204100EA05024FF400710E48FFF7E7
:101710004DFF012211020C48FFF748FF00224FF451
:1017200080710948FFF742FF601CC4B2082CE7DB58
:10173000012211020448FFF739FF00224FF48071A3
:101740000148FFF733FF70BD000C014010B50122C6
:1017500051020A48FFF72AFF012211020748FFF74A
:1017600025FF00224FF400710448FFF71FFF0022FD
:101770004FF480710148FFF719FF10BD000C0140C4
:1017800010B500224FF400710648FFF70FFF012249
:1017900011020448FFF70AFF012251020148FFF736
:1017A00005FF10BD000C014070B5002406E00025C7
:1017B00000E06D1CB5F57A7FFBD3641CB4F57A7F2D
:1017C000F5D3FFF771FFAE2000F0A4F8D52000F0AC
:1017D000A1F8802000F09EF8A82000F09BF83F20A0
:1017E00000F098F8D32000F095F8002000F092F86F
:1017F000402000F08FF8A12000F08CF8C82000F005
:1018000089F8DA2000F086F8122000F083F88120B1
:1018100000F080F8CF2000F07DF8D92000F07AF8B1
:10182000F12000F077F8DB2000F074F8302000F0B1
:1018300071F8A42000F06EF8A62000F06BF88D205F
:1018400000F068F8142000F065F8AF2000F062F8AE
:10185000FFF714FF70BD70B505460C4645F0B000AB
:1018600000F058F8102141EA141000F053F804F089
:101870000F0000F04FF870BD2DE9F04105460E460F
:101880001746721ED206110E6A1E5206100EFFF780
:10189000E2FF002409E0A7F12001134A02EB011145
:1018A000085D00F047F8601CC4B2082CF3DB721E20
:1018B000D206110E6A1E012303EB4202D0B2FFF7DB
:1018C000CAFF00240BE0A7F12001074A02EB011236
:1018D00004F10801505C00F02DF8601CC4B2082C23
:1018E000F1DBBDE8F0810000902800082DE9F0410F
:1018F00007460E461546002407E02A5D3019C1B29E
:101900003846FFF7B9FF601CC4B2285D0028F4D147
:10191000BDE8F08110B50446FFF718FF7820FFF707
:10192000EBFE0020FFF7E8FE2046FFF7E5FEFFF79D
:1019300027FF10BD10B50446FFF708FF7820FFF71A
:10194000DBFE4020FFF7D8FE2046FFF7D5FEFFF76D
:1019500017FF10BD7047000001460020034A506881
:1019600020F44040084350607047000000100240DF
:1019700029B1064AD2690243044BDA6104E0034A02
:10198000D2698243014BDA617047000000100240C7
:1019900029B1064A12690243044B1A6104E0034A62
:1019A00012698243014B1A61704700000010024027
:1019B00029B1064A92690243044B9A6104E0034A42
:1019C00092698243014B9A61704700000010024007
:1019D00029B1064AD2680243044BDA6004E0034AA4
:1019E000D2688243014BDA60704700000010024069
:1019F00030B500210022002400232D4D6D6805F034
:101A00000C0121B1042905D0082923D105E0294D75
:101A1000056022E0274D05601FE0254D6D6805F447
:101A20007012234D6D6805F48034022505EB924257
:101A30001CB9214D554305600BE01D4D6D6805F443
:101A400000351DB11C4D5543056002E0194D55434D
:101A5000056002E0174D056000BF00BF144D6D68C2
:101A600005F0F0010909154D6B5C0568DD40456026
:101A70000F4D6D6805F4E061090A104D6B5C456817
:101A8000DD4085600A4D6D6805F46051C90A0B4D53
:101A90006B5C4568DD40C560054D6D6805F44041EF
:101AA000890B074D6B5CC568B5FBF3F5056130BD6F
:101AB0000010024000127A0000093D0018000020CA
:101AC00028000020704710B500F002F810BD00009B
:101AD0000CB50020019000903348006840F480303D
:101AE0003149086000BF3048006800F400300090C1
:101AF0000198401C0190009818B90198B0F5A06FAA
:101B0000F1D12948006800F4003010B101200090A4
:101B100001E0002000900098012843D1234800688C
:101B200040F01000214908600846006820F00300DA
:101B300008600846006840F0020008601A484068E3
:101B4000194948600846406848600846406840F4C3
:101B5000806048600846406820F47C104860084671
:101B6000406840F4E81048600846006840F0807023
:101B7000086000BF0C48006800F000700028F9D031
:101B80000948406820F0030007494860084640685B
:101B900040F00200486000BF0348406800F00C00BD
:101BA0000828F9D10CBD00000010024000200240BE
:101BB000042808D14FF0E021096941F004014FF0F9
:101BC000E022116107E04FF0E021096921F00401F2
:101BD0004FF0E022116170477047000010B51348C4
:101BE000006840F00100114908600846406810494B
:101BF00008400E494860084600680E4908400B49F5
:101C000008600846006820F48020086008464068A4
:101C100020F4FE0048604FF41F008860FFF753FF78
:101C20004FF000600449086010BD00000010024041
:101C30000000FFF8FFFFF6FE08ED00E030B589B0C8
:101C400005460C4601210220FFF792FE01210520E6
:101C5000FFF7AEFE4020ADF8200018208DF82300DD
:101C600003208DF8220008A92748FFF710FC8020E8
:101C7000ADF8200018208DF8230003208DF82200F5
:101C800008A92148FFF703FCADF81850ADF814403F
:101C90000020ADF81A00ADF8160005A91B4800F0A9
:101CA00009F97020ADF804000120ADF8060000200D
:101CB000ADF80C004FF4C870ADF80A0001A9134844
:101CC00000F03EF80821114800F086F87020ADF8C9
:101CD00004000120ADF806000020ADF80C006420DF
:101CE000ADF80A0001A9094800F080F8082107486A
:101CF00000F0CEF80121054800F00AF80121034860
:101D000000F012F809B030BD0008014000040040A6
:101D100021B1028842F08002028004E002884FF67E
:101D20007F731A400280704721B1028842F001029D
:101D3000028004E002884FF6FE731A40028070476A
:101D400070B5002400220023058C4FF6FE76354046
:101D50000584028C8388048B4FF68F752C40B51E4A
:101D60002C400D882C43751E2A400D892A434D882E
:101D70002A43144DA8420BD0134DA84208D0134D4E
:101D8000A84205D0124DA84202D0124DA84213D14C
:101D90004FF6F7752A404D892A434FF6FB752A40C6
:101DA0008D882A434FF6FF652B404FF6FF552B4099
:101DB0008D892B43CD892B4383800483CD888586F1
:101DC000028470BD002C01400034014000400140FD
:101DD00000440140004801400A460021018B4FF6B3
:101DE000F7731940114301837047000070B5002458
:101DF00000220023058C4FF6EF7635400584028CD7
:101E00008388048B48F6FF752C404FF6FF452C4025
:101E10000D884FF6FF7606EA05252C434FF6DF7551
:101E20002A400D8906EA05152A434D8806EA05155C
:101E30002A43154DA84202D0144DA8421DD14FF699
:101E40007F752A404D894FF6FF7606EA05152A432D
:101E50004FF6BF752A408D8806EA05152A434FF6CE
:101E6000FF352B404FF2FF752B408D8906EA850523
:101E70002B43CD8906EA85052B4383800483CD88D7
:101E80000587028470BD0000002C01400034014031
:101E90000A460021018B4FF2FF7319404FF6FF7382
:101EA00003EA022319430183704781867047018743
:101EB00070470000002202881D4B98420ED01D4B37
:101EC00098420BD0B0F1804F08D01B4B984205D000
:101ED0001A4B984202D01A4B984204D14FF68F7396
:101EE0001A404B881A43174B984207D0164B98421A
:101EF00004D04FF6FF431A40CB881A4302808B88E8
:101F000083850B8803850A4B98420BD0094B984276
:101F100008D00E4B984205D00D4B984202D00D4B85
:101F2000984201D10B7A0386012383827047000017
:101F3000002C014000340140000400400008004033
:101F4000000C004000100040001400400040014020
:101F500000440140004801402DE9FC4140F2255178
:101F6000194800F0A1F860B340F22551164800F07E
:101F700031F8154800F054F9C4B2204600F028FCAE
:101F8000074600F0F9FB05462A460B460FA16846B6
:101F9000FEF748F96A4601210220FFF7A7FC312C21
:101FA00001D100F02FFA322C01D100F039FA302C97
:101FB00001D100F019FA40F22551034800F00AF867
:101FC00000BFBDE8FC81000000380140252E3266CC
:101FD0000000000010B50022002340F66A14A14260
:101FE00000D100BF0A1201249440A3B2DC43048054
:101FF00010BD21B1828942F40052828104E08289BD
:102000004DF6FF731A4082817047000010B50446F8
:102010002048844209D101218803FFF7D9FC00211F
:102020004FF48040FFF7D4FC32E01B48844209D1D2
:1020300001214804FFF7ACFC00214FF40030FFF70A
:10204000A7FC25E01548844209D101218804FFF747
:102050009FFC00214FF48020FFF79AFC18E0104805
:10206000844209D10121C804FFF792FC00214FF4FA
:102070000020FFF78DFC0BE00A48844208D10121C3
:102080000805FFF785FC00214FF48010FFF780FC66
:1020900010BD0000003801400044004000480040EE
:1020A000004C00400050004070B502460024002360
:1020B0000025002040F66A16B14200D100BFC1F3EE
:1020C000421501F01F03012606FA03F3012D02D188
:1020D0009689334006E0022D02D1168A334001E092
:1020E000968A33400C12012606FA04F4168834400E
:1020F00013B10CB1012000E0002070BDF0B5034623
:10210000002400260025002040F66A17B94200D1BD
:1021100000BF1846C1F3421401F01F06012707FA59
:1021200006F5012C01D10C3004E0022C01D1103055
:1021300000E014301AB107682F43076002E0076817
:10214000AF430760F0BD00002DE9F04786B00546BB
:102150000E460024A24600BFA1460027B08900B168
:1021600000BF2F462C8A4CF6FF700440F0880443D1
:102170002C82AC894EF6F3100440B08831890843B4
:10218000718908430443AC81AC8A4FF6FF40044098
:10219000B0890443AC8201A8FFF72AFC1F4887429C
:1021A00002D1DDF810A001E0DDF80CA0A88900F450
:1021B000004040B10AEBCA0000EB0A103168490048
:1021C000B0FBF1F807E00AEBCA0000EB0A10316837
:1021D0008900B0FBF1F86420B8FBF0F0040120099D
:1021E000642101FB1089A88900F4004040B132202D
:1021F00000EBC900B0FBF1F000F00700044308E079
:10220000322000EB09106421B0FBF1F000F00F0068
:1022100004432C8106B0BDE8F0870000003801407F
:1022200001468888C0F30800704700BFFEE74900F8
:1022300050EAC12018BF04204A0D18BF40F0010029
:1022400040F2FF72B2EB515F08BF40F0020001287C
:1022500008BF0520704730380A2801D20120704796
:102260000020704710B56FF00400FFF7A1FC0A488A
:1022700000680A49B0FBF1F0094908700846007887
:1022800000EB4001C1EBC0104FF6FF7101EAC00046
:102290000449088010BD00000000002000127A00F0
:1022A00014000020160000200146114A12884A43FB
:1022B0004FF0E0235A6100229A611A46126942F0F7
:1022C00001021A6100BF4FF0E022106900F0010224
:1022D0001AB100F48032002AF5D04FF0E0221269E2
:1022E00022F001024FF0E0231A6100229A61704748
:1022F0001600002008B501211020FFF759FB4FF40C
:102300000050ADF8000010208DF8030003208DF878
:10231000020069460148FFF7BAF808BD0010014005
:1023200010B54FF4FA70FFF7BFFF4FF400510648A5
:10233000FFF73AF94FF4FA70FFF7B6FF4FF4005188
:102340000148FFF72FF910BD001001401CB500BF78
:10235000FFF72AFAFFF7CEFFFFF784FF00F06EF8D1
:10236000FFF74CF847214FF4C870FFF767FCFFF701
:1023700085F916A201210220FFF7B8FA25E06420B2
:10238000FFF792FF0120FFF717F98146484600F05A
:102390001FFA824600F0F0F907464FF066320F4B05
:1023A00000F0ECF8054600F0B7F80446204600F0CF
:1023B000E3F905462A460B4609A16846FDF732FFB8
:1023C0006A4601210846FFF791FAD8E768656C6C08
:1023D0006F207A68616E676B6169210066664A3FAB
:1023E000252E32660000000010B5FFF799FF64212A
:1023F0000348FFF75AFD64210148FFF758FD10BD5F
:102400000004004010B54FF4C8710448FFF74DFDBB
:1024100064210248FFF74BFD10BD0000000400409E
:1024200010B564210448FFF740FD4FF4C87102481D
:10243000FFF73DFD10BD00000004004000B587B06F
:102440002848FFF7E3FD012144F20400FFF7B0FA4A
:1024500018208DF81B004FF40070ADF81800012013
:102460008DF81A0006A92048FFF711F804208DF80E
:102470001B000002ADF8180006A91B48FFF707F87B
:102480004FF4165002900C20ADF812000020ADF869
:102490001400ADF81000ADF80E00ADF80C0002A964
:1024A0001048FFF751FE01210E48FFF7A2FD4FF43F
:1024B000A060FFF7D9F825208DF8040001208DF8E1
:1024C000070000208DF805008DF8060001A8FFF731
:1024D00093F8012240F225510248FFF70FFE07B0A2
:1024E00000BD0000003801400008014010B500297F
:1024F0000AD00878002807D005487844FEF786FA05
:10250000002801D0002010BD0248784410BD000012
:102510003A0A0000320A000021F00042A2F16052A3
:10252000B2F5801F01F0004328BFD2F17F6C0BD9B8
:102530005FEA001C43EAC20242EB507018BF7047CA
:1025400028BF20F001007047B2F5801FBCBF1846BD
:1025500070474FEA410C1CF5001F02D2084600F0FC
:1025600090B970B500F0B4F800000089FFF7F6BF2D
:102570004FF00040A0F5800070470000DFF848C130
:1025800070B51CEA111E1EBF1CEA13159EEA0C0F43
:1025900095EA0C0F00F06F8081EA030423EA4C13E4
:1025A0004EEAD47E21EA4C1141F4801143F48013A9
:1025B000AE44A1FB024CA0FB0365AEF17F7E361951
:1025C00055EB0C05A1FB034C4CF10003A0FB021CD6
:1025D00016EB0C06654153F10003094218BF46F0A3
:1025E000010613F4007F0BD14FEA03314FEA0530A7
:1025F000340341EA155140EA16506FF003020AE035
:102600004FEAC3214FEAC520F40241EA555140EA9E
:1026100056506FF0020202EB2E4201EB025585EAA2
:10262000CE710AD05FEA440C18BF24F0004450F188
:10263000000041F1000120EAD47040F2FE7C6245C6
:1026400000D270BDA84214BF4FF080444FF0404408
:10265000002E08BF0024BEF1806FA8BFA1F1C041C9
:10266000BDE8704080F282804FF0000001F1C0416F
:1026700001F0004170479EEA0C0F0CEA131518BFD9
:1026800095EA0C0F06D04FF0000081EA030E0EF021
:10269000004170BD00F01CF88900013E00F007B851
:1026A00000F009B84FEA430C5FEA5C5C08D081EAAD
:1026B000030100F05BB84FEA410C5FEA5C5CF6D1C5
:1026C0004FF00000014970470000FF070000F87F4D
:1026D0000EF1020E2EF0030E5EF8046B364205D4A6
:1026E000012A43EB030515F5001F12D8012841EB21
:1026F000010C1CF5001F0CD80ED14FEAD17C15F54A
:10270000001F0CEB4C0C0CF1020C08BF4CEBD37C03
:1027100004E04FF0080C01E04FEAD37C0CEB4C05D1
:1027200026FA05F606F00706B6F1040C06D20EEB03
:10273000860CBDE870404CF0010C6047DFE80CF0FF
:10274000090B02024FF000414FF00000A1F50021FB
:1027500070BD19461046012851EB010418BFD4F58D
:10276000001484BF002001F0004170BD0808A0F5EE
:1027700000114FEA3101704743004FEAD30C4FEA92
:102780003C0C43401FBF40070CF1605113F0FE4F5B
:1027900070471CF0006F03D100200CF0004170471F
:1027A0000CF0004343EA507010B540EACC0000F052
:1027B00022F800BF000000924FEA0001FFF7D6BFE9
:1027C0004FF000414FF00000A1F5002170470000DC
:1027D000B0FA80F310FA03F2C3F19D030AD0D905D1
:1027E00001EB1220530638BF704700F1010008BF0B
:1027F00020F0010070470EF1020E2EF0030E5EF87D
:10280000044B244204D44FEA4102B2F17F4F11D865
:102810004FEA4003B3F17F4F0CD80ED14FEAD07C82
:10282000B2F17F4F0CEB4C0C0CF1020C08BF4CEBDF
:10283000D17C04E04FF0080C01E04FEAD17C0CEBB6
:102840004C0324FA03F404F00704B4F1040C06D298
:102850000EEB840CBDE810404CF0010C6047DFE843
:102860000CF0070802024FF00040A0F5800010BDF8
:102870000846420018BFD2F1807288BF00F00040C5
:1028800010BDFF2141EAD050C0057047FDF73FBEA3
:102890000000000000000000000000000000000038
:1028A000000000F8000000000000003330000000CD
:1028B00000100C06100C06000000000000000000D4
:1028C00040C07840C0784000043F04043F04040046
:1028D000007088FC08300000001820FF211E000056
:1028E000F008F000E018000000211C031E211E006B
:1028F00000F00888700000001E21232419272110F1
:1029000010160E0000000000000000000000000093
:10291000000000E01804020000000007182040003A
:1029200000020418E000000000402018070000002A
:10293000404080F0804040000202010F010202008E
:10294000000000F0000000000101011F0101010072
:10295000000000000000000080B0700000000000D7
:102960000000000000000000000101010101010160
:1029700000000000000000000030300000000000F7
:1029800000000000806018040060180601000000CC
:1029900000E010080810E000000F102020100F00C9
:1029A000001010F8000000000020203F2020000050
:1029B00000700808088870000030282422213000A8
:1029C00000300888884830000018202020110E00B0
:1029D0000000C02010F8000000070424243F240059
:1029E00000F80888880808000019212020110E002E
:1029F00000E0108888180000000F112020110E0040
:102A000000380808C83808000000003F0000000037
:102A10000070880808887000001C222121221C00F8
:102A200000E010080810E0000000312222110F0021
:102A3000000000C0C00000000000003030000000B6
:102A40000000008000000000000080600000000026
:102A5000000080402010080000010204081020003F
:102A6000404040404040400004040404040404008A
:102A7000000810204080000000201008040201001F
:102A8000007048080808F00000000030360100001F
:102A9000C030C828E810E0000718272423140B00D2
:102AA0000000C038E0000000203C2302022738204C
:102AB00008F8888888700000203F202020110E0030
:102AC000C030080808083800071820202010080027
:102AD00008F808080810E000203F202020100F0010
:102AE00008F88888E8081000203F202023201800DC
:102AF00008F88888E8081000203F20000300000044
:102B0000C03008080838000007182020221E0200E4
:102B100008F808000008F808203F210101213F20A3
:102B2000000808F8080800000020203F20200000CE
:102B300000000808F8080800C08080807F000000BE
:102B400008F888C028180800203F200126382000F7
:102B500008F8080000000000203F2020202030005E
:102B600008F8F800F8F80800203F003F003F200078
:102B700008F830C00008F808203F200007183F0080
:102B8000E01008080810E0000F10202020100F00AF
:102B900008F808080808F000203F210101010000A2
:102BA000E01008080810E0000F18242438504F00E7
:102BB00008F8888888887000203F2000030C3020A7
:102BC00000708808080838000038202121221C00E5
:102BD000180808F8080818000000203F200000002E
:102BE00008F808000008F808001F202020201F0017
:102BF0000878880000C83808000007380E01000077
:102C0000F80800F80008F800033C0700073C030040
:102C1000081868808068180820302C03032C3020A6
:102C20000838C800C83808000000203F2000000015
:102C300010080808C838080020382621202018006D
:102C4000000000FE020202000000007F4040400041
:102C5000000C30C000000000000000010638C00079
:102C600000020202FE000000004040407F00000021
:102C70000000040202020400000000000000000046
:102C80000000000000000000808080808080808044
:102C9000000202040000000000000000000000002C
:102CA00000008080808000000019242222223F2022
:102CB00008F8008080000000003F112020110E0065
:102CC0000000008080800000000E112020201100F4
:102CD000000000808088F800000E112020103F20A6
:102CE0000000808080800000001F2222222213002A
:102CF000008080F0888888180020203F2020000075
:102D00000000808080808000006B94949493600029
:102D100008F8008080800000203F210000203F2034
:102D200000809898000000000020203F2020000034
:102D3000000000809898000000C08080807F000024
:102D400008F8000080808000203F24022D30200001
:102D5000000808F8000000000020203F20200000AC
:102D60008080808080808000203F20003F20003FC6
:102D70008080008080800000203F210000203F20D4
:102D80000000808080800000001F202020201F0085
:102D9000808000808000000080FFA12020110E00B4
:102DA0000000008080808000000E112020A0FF80A5
:102DB000808080008080800020203F212000010052
:102DC00000008080808080000033242424241900A7
:102DD000008080E0808000000000001F20200000B4
:102DE0008080000000808000001F202020103F20F5
:102DF000808080000080808000010E300806010085
:102E000080800080008080800F300C030C300F0029
:102E100000808000808080000020312E0E31200054
:102E2000808080000080808080818E701806010084
:102E300000808080808080000021302C22213000A2
:102E400000000000807C020200000000003F4040C3
:102E500000000000FF00000000000000FF00000074
:102E60000002027C800000000040403F00000000A3
:102E7000000601010202040400000000000000003E
:102E800002400000000000A000000000054000001B
:102E9000000000C8000000000C4000000000409C42
:102EA00000000000194000000020BCBE000000002F
:102EB00034400000BFC91B8E00000004B540000074
:102EC000504BCFD06607E2CF010000006C410000FC
:102ED0003E8251AADFEEA73401000000D942000073
:102EE000DCB5A0E23A301F97FFFFFFFFB4450000BA
:102EF000FD25A0C8E9A3C14FFFFFFFFFFF3F000072
:102F00000000008000000000FF3F00000000008083
:102F100000000000502F0008000000202C000000DE
:102F20006C0100087C2F00082C00002064060000C3
:102F3000880100081C00000043000000F8FFFFFFAC
:102F40000C0000000E0000000F0000002E0000002A
:102F500000A24A0400000000000000000102030477
:102F60000607080900000000000000000102030439
:0C2F700001020304060708090204060819
:04000005080001E509
:00000001FF
